:100000000C94D2000C94EF000C94EF000C94EF00D1
:100010000C94EF000C94EF000C94EF000C94EF00A4
:100020000C94EF000C94F1000C94EF000C94EF0092
:100030000C94EF000C94EF000C94EF000C94EF0084
:100040000C9468040C94EF000C94EF000C94EF00F7
:100050000C94EF000C94EF000C94EF000C94EF0064
:100060000C94EF000C94EF0000E3E3818989898907
:10007000F7F700000087C7E1A1B19989CFC7000059
:10008000000000000303FFFF000000004122361CB7
:100090003CFF3C1C1E1A1110000000003C7EFFFFBC
:1000A000FDEF6E2C000000003C7EFFFFFDE76624A4
:1000B000000000003C7EFFFFFDE742000000000062
:1000C0003C7EFFFFE5C3420000000000000000008E
:1000D0000000FF08080808FF007894949458000076
:1000E000FF00FF0078848484780000008000000016
:1000F000033CC0300E010E30C03C03788484847809
:1001000000FC08040000FF0078848448FF00000021
:100110000000BF00000000000000004122361C3C2F
:10012000FF3C1C1E1A11100000000000000000031C
:100130003CC0700E010E70C03C0368949494F800AB
:1001400004FF8404FF8400789494945800FC040411
:100150000078848484780004FF8404FF8400000015
:1001600000789494945800FF007894949458007800
:10017000848484480004FF8400FC040400788484A0
:10018000847800FC080404F800FD00788484844826
:1001900000000000000000004122361C3CFF3C1C17
:1001A0001E1A111011241FBECFEFD8E0DEBFCDBF45
:1001B00011E0A0E0B1E0E2EBFAE002C005900D92A0
:1001C000AA31B107D9F711E0AAE1B1E001C01D924F
:1001D000AA33B107E1F70E9450050C9457050C941F
:1001E00000001F920F920FB60F9211242F933F938E
:1001F0008F939F93AF93BF93EF93FF938091B20040
:100200008A5F8093B2008091000181508093000149
:100210008823D9F484E080930001AAE1B1E0E1E011
:10022000F1E028EE33E08D918BB9808185B9818131
:1002300088B9C9010197F1F7329681E0A632B80773
:1002400091F78FEF85B988B91BB8FF91EF91BF91F6
:10025000AF919F918F913F912F910F900FBE0F9073
:100260001F901895FC010196E491E0931A019C01FE
:100270002F5F3F4FFC01849180931B01C9010196C0
:10028000F901249120931C019C012F5F3F4FFC0139
:10029000849180931D01C9010196F9012491209355
:1002A0001E019C012F5F3F4FFC01849180931F0131
:1002B000C9010196F9012491209320019C012F5F2F
:1002C0003F4FFC01849180932101C9010196F901FE
:1002D0002491209322019C012F5F3F4FFC018491C8
:1002E00080932301F9018491809324012F5F3F4F74
:1002F000F9018491809325010895A82F782F7150DA
:10030000462F41507C3098F4483088F481E090E0EA
:10031000042E02C0880F991F0A94E2F7E72FF0E03D
:10032000E65EFE4F3081382319F031E001C030E045
:10033000AC3090F4483080F481E090E0042E02C0AC
:10034000880F991F0A94E2F7EA2FF0E0E65EFE4F6D
:100350002081282309F03F5F5A2F5F5F5C3088F4CB
:10036000483078F481E090E002C0880F991F4A95E8
:10037000E2F7E52FF0E0E65EFE4F2081282309F04A
:100380003F5F7C3090F4683080F481E090E0062E8E
:1003900002C0880F991F0A94E2F7E72FF0E0E65EAB
:1003A000FE4F2081282309F03F5F5C3090F46830D5
:1003B00080F481E090E0062E02C0880F991F0A9415
:1003C000E2F7E52FF0E0E65EFE4F2081282309F0FA
:1003D0003F5F6F5F7C3090F4683080F481E090E0A4
:1003E000062E02C0880F991F0A94E2F7E72FF0E06B
:1003F000E65EFE4F2081282309F03F5FAC3090F489
:10040000683080F481E090E0062E02C0880F991FCA
:100410000A94E2F7EA2FF0E0E65EFE4F20812823FF
:1004200009F03F5F5C3088F4683078F481E090E058
:1004300002C0880F991F6A95E2F7E52FF0E0E65EAB
:10044000FE4F2081282309F03F5F832F089504B6D3
:1004500001FE0EC014BE8FEF85B914B888B917B865
:100460008BB91AB86CE271E080E090E00E94BC04A5
:100470008FEF84B987B98AB985B988B91BB810924A
:100480002501109224011092230110922201109252
:1004900021011092200110921F0110921E01109252
:1004A0001D0110921C0110921B0110921A0184E090
:1004B0008093B1001092B2008091700081608093AF
:1004C0007000789408956F927F928F929F92AF926E
:1004D000BF92CF92DF92EF92FF920F931F93DF9321
:1004E000CF93CDB7DEB72C970FB6F894DEBF0FBE13
:1004F000CDBF5AE1C52E51E0D52E3E010894611CB6
:10050000711C830141E0842E912CA02EA618F601C7
:10051000B080F801B082EE24FF248A2D6E2D0E9457
:100520007D01282F833071F4C4010E2C02C0880F86
:10053000991F0A94E2F7982F8B2121F4F80180810A
:10054000892B80832250223078F0C4010E2C02C007
:10055000880F991F0A94E2F7982F8B2129F0909524
:10056000F8018081892380830894E11CF11CF8E064
:10057000EF16F10491F60894C11CD11C0F5F1F4FB8
:1005800086E2C81681E0D80609F0BFCF20E030E04F
:10059000AE014F5F5F4FF901E65EFE4FDA01A20F39
:1005A000B31F8C9180832F5F3F4F2C30310599F71B
:1005B00066E970E080E090E00E94BC048091270131
:1005C0008F5F809327018D3310F480E003C0109279
:1005D000270181E02C960FB6F894DEBF0FBECDBF89
:1005E000CF91DF911F910F91FF90EF90DF90CF900F
:1005F000BF90AF909F908F907F906F900895CF9312
:10060000DF93C0912801D0912901CE0188539F4FDB
:100610000E943201CE010C968C3D910560F0109243
:1006200029011092280168EB7BE080E090E00E94B5
:10063000BC0481E00CC02196D0932901C09328010D
:100640006AE570E080E090E00E94BC0480E0DF9109
:10065000CF910895A0912C01B0912D0140912A01D4
:1006600050912B0141505040CD012CE030E021153C
:10067000310581F0F901E40FF51FE856FF4F749141
:100680008C3028F4E82FF0E0E65EFE4F70832150B6
:10069000304007C0E82F8C3020F4F0E0E65EFE4FDB
:1006A000108201976FEF8F3F960709F762E370E0C2
:1006B0006A1B7B0B80E090E00E94BC0480912A01C1
:1006C00090912B010C9690932B0180932A01C09757
:1006D00010F480E0089510922B0110922A0180916D
:1006E0002C0190912D018731910520F110922D015F
:1006F00010922C0164EF71E080E090E00E94BC0455
:1007000010922501109224011092230110922201CF
:10071000109221011092200110921F0110921E01CF
:1007200010921D0110921C0110921B0110921A01CF
:1007300081E00895019690932D0180932C0180E033
:1007400008950F93DF93CF9300D0CDB7DEB700911C
:100750002E01802F90E09A83898388599F4F0E94B1
:100760003201E981FA81B49754F010922E0168EEBB
:1007700073E080E090E00E94BC0481E00AC0045F66
:1007800000932E0168EE73E080E090E00E94BC04CC
:1007900080E00F900F90CF91DF910F9108952091FD
:1007A000300180912F0120FF02C0815001C08F5F76
:1007B00080932F01109225011092240110922301A1
:1007C00010922201109221011092200110921F011B
:1007D00010921E0110921D0110921C0110921B011B
:1007E00010921A0190912F019C3030F4E92FF0E023
:1007F000E65EFE4F8FEF808391509A3050F1822F4A
:100800008F5F80933001843020F11092300110927C
:100810002F016AE570E080E090E00E94BC04109235
:1008200025011092240110922301109222011092AE
:1008300021011092200110921F0110921E011092AE
:100840001D0110921C0110921B0110921A0181E0EF
:1008500008956AE570E080E090E00E94BC0480E0CA
:100860000895809126018230A9F0833028F48823EE
:1008700051F0813061F50AC08430B1F0843070F0FD
:10088000853029F51DC00E94CF030BC00E94A10333
:100890008F5F07C00E942A038E5F03C00E94FF0281
:1008A0008D5F80932601089585E080932601EAE11B
:1008B000F1E08081877E819381E0E632F807C9F715
:1008C0000E946302882319F082E080932601089534
:1008D0001F920F920FB60F9211242F933F934F93B5
:1008E0005F936F937F938F939F93AF93BF93209169
:1008F00035013091360140913701509138017091A6
:100900003901DA01C9010296A11DB11D672F6A5F85
:100910006D3730F06D57DA01C9010396A11DB11D85
:10092000609339018093350190933601A09337018C
:10093000B09338018091310190913201A09133013F
:10094000B09134010196A11DB11D809331019093A6
:100950003201A0933301B0933401BF91AF919F91C5
:100960008F917F916F915F914F913F912F910F9058
:100970000FBE0F901F9018959B01AC017FB7F894A4
:100980008091310190913201A0913301B0913401F5
:1009900066B5A89B05C06F3F19F00196A11DB11D5A
:1009A0007FBFBA2FA92F982F8827860F911DA11DD1
:1009B000B11D63E0880F991FAA1FBB1F6A95D1F76D
:1009C000BC012DC0FFB7F8948091310190913201A4
:1009D000A0913301B0913401E6B5A89B05C0EF3F6B
:1009E00019F00196A11DB11DFFBFBA2FA92F982F95
:1009F00088278E0F911DA11DB11DE3E0880F991F5F
:100A0000AA1FBB1FEA95D1F7861B970B885E934000
:100A1000C8F2215030404040504068517C4F211571
:100A200031054105510571F60895789484B58260C9
:100A300084BD84B5816084BD85B5826085BD85B582
:100A4000816085BDEEE6F0E0808181608083E1E831
:100A5000F0E0108280818260808380818160808369
:100A6000E0E8F0E0808181608083E1EBF0E080816C
:100A700084608083E0EBF0E0808181608083EAE73E
:100A8000F0E08081846080838081826080838081C7
:100A9000816080838081806880831092C100089586
:100AA0000E9415050E9427020E943104FDCFF89490
:100AB000FFCF01FEFFFDFFFBFFF7FFEFFFDFFFFFB3
:100AC000FEFFFDFFFBFFF7FFEFFFDF00FFFFFFFF74
:100AD000FFFFFFFFFFFFFFFFFFFFFFFFFFFFFFFF26
:100AE000FFFFFFFFFFFFFFFFFFFFFFFFFFFFFFFF16
:100AF000FFFFFFFFFFFFFFFFFFFFFFFFFFFFFFFF06
:100B0000F0E01082808182608083808181608083B8
:100B1000E0E8F0E0808181608083E1EBF0E08081BB
:100B200084608083E0EBF0E0808181608083EAE78D
:100B3000F0E0808184608083808182608083808116
:100B4000816080838081806880831092C1000895D5
:100B50000E946D050E947F020E948904FDCFF894D7
:100B6000FFCF01FEFFFDFFFBFFF7FFEFFFDFFFFF02
:100B7000FEFFFDFFFBFFF7FFEFFFDF00FFFFFFFFC3
:100B8000816080838081806880831092C100089595
:100B90000E948D050E949F020E94A904FDCFF89437
:100BA000FFCF01FEFF01FEFF02FEFF04FEFF08FE75
:100BB000FF10FEFF20FEFF40FEFF80FDFF01FDFF56
:100BC00002FDFF04FDFF08FDFF10FDFF20FDFF40BB
:100BD000FDFF80FBFF01FBFF02FBFF04FBFF08FBA7
:100BE000FF10FBFF20FBFF40FBFF80F7FF01F7FF3B
:100BF00002F7FF04F7FF08F7FF10F7FF20F7FF40A9
:100C0000F7FF80EFFF01EFFF02EFFF04EFFF08EFB8
:100C1000FF10EFFF20EFFF40EFFF80DFFF01DFFF5E
:100C200002DFFF04DFFF08DFFF10DFFF20DFFF40F0
:100C3000DFFF80FFFE01FFFE02FFFE04FFFE08FF54
:100C4000FE10FFFE20FFFE40FFFE80FFFD01FFFDC6
:100C500002FFFD04FFFD08FFFD10FFFD20FFFD402A
:100C6000FFFD80FFFB01FFFB02FFFB04FFFB08FF12
:100C7000FB10FFFB20FFFB40FFFB80FFF701FFF7AE
:100C800002FFF704FFF708FFF710FFF720FFF74018
:100C9000FFF780FFEF01FFEF02FFEF04FFEF08FF18
:100CA000EF10FFEF20FFEF40FFEF80FFDF01FFDFDE
:100CB00002FFDF04FFDF08FFDF10FFDF20FFDF4060
:100CC000FFDF8000FFFFFFFFFFFFFFFFFFFFFFFFD2
:100CD000FFFFFFFFFFFFFFFFFFFFFFFFFFFFFFFF24
:100CE000FFFFFFFFFFFFFFFFFFFFFFFFFFFFFFFF14
:100CF000FFFFFFFFFFFFFFFFFFFFFFFFFFFFFFFF04
:100D0000FFFFFFFFFFFFFFFFFFFFFFFFFFFFFFFFF3
:107800000C94343C0C94513C0C94513C0C94513CE1
:107810000C94513C0C94513C0C94513C0C94513CB4
:107820000C94513C0C94513C0C94513C0C94513CA4
:107830000C94513C0C94513C0C94513C0C94513C94
:107840000C94513C0C94513C0C94513C0C94513C84
:107850000C94513C0C94513C0C94513C0C94513C74
:107860000C94513C0C94513C11241FBECFEFD8E036
:10787000DEBFCDBF11E0A0E0B1E0EAE8FFE702C063
:1078800005900D92A230B107D9F712E0A2E0B1E065
:1078900001C01D92AD30B107E1F70E942D3D0C945F
:1078A000C33F0C94003C982F95959595959595958B
:1078B000905D8F708A307CF0282F295A8091C0000B
:1078C00085FFFCCF9093C6008091C00085FFFCCF60
:1078D0002093C6000895282F205DF0CF982F809127
:1078E000C00085FFFCCF9093C6000895EF92FF92F1
:1078F0000F931F93EE24FF2487018091C00087FD22
:1079000017C00894E11CF11C011D111D81E2E8164D
:1079100081EAF80687E0080780E0180770F3E09135
:107920000401F091050109958091C00087FFE9CF1E
:107930008091C6001F910F91FF90EF9008950E94D3
:10794000763C982F8091C00085FFFCCF9093C600B5
:1079500091362CF490330CF09053892F089597555D
:10796000892F08951F930E949F3C182F0E949F3CCF
:107970001295107F810F1F9108951F93182F882350
:1079800021F00E94763C1150E1F71F9108951F935A
:10799000182F0E94763C803249F0809103018F5F5E
:1079A000809303018530C1F01F9108958091C0003C
:1079B00085FFFCCF84E18093C6008091C00085FFE5
:1079C000FCCF1093C6008091C00085FFFCCF80E102
:1079D0008093C6001F910895E0910401F091050184
:1079E00009951F9108950E94763C803241F0809164
:1079F00003018F5F80930301853081F008958091AA
:107A0000C00085FFFCCF84E18093C6008091C00058
:107A100085FFFCCF80E18093C6000895E0910401CA
:107A2000F09105010995089548EC50E08823A1F0F4
:107A30002D9A28EE33E0FA013197F1F721503040CA
:107A4000D1F72D9828EE33E0FA013197F1F7215064
:107A50003040D1F7815061F708953F924F925F9285
:107A60006F927F928F929F92AF92BF92CF92DF924E
:107A7000EF92FF920F931F93CF93DF93000082E06A
:107A80008093C00080E18093C4001092C50088E11B
:107A90008093C10086E08093C2005098589A259A3E
:107AA00081E00E94143D24E1F22E9EE1E92E85E959
:107AB000D82E0FE0C02E10E1B12EAA24A394B1E479
:107AC0009B2EA6E58A2EF2E57F2EE0E26E2E79E46B
:107AD000572E63E5462E50E5352E0E94763C8033C6
:107AE000B1F18133B9F1803409F46FC0813409F404
:107AF00076C0823409F485C0853409F488C08035A5
:107B000031F1823521F1813511F1853509F485C0D6
:107B1000863509F48DC0843609F496C0843709F49B
:107B200003C1853709F472C1863709F466C08091B4
:107B300003018F5F80930301853079F6E0910401A2
:107B4000F091050109950E94763C803351F60E9420
:107B5000F33CC3CF0E94763C803249F78091C0004D
:107B600085FFFCCFF092C6008091C00085FFFCCF5E
:107B70009092C6008091C00085FFFCCF8092C60025
:107B80008091C00085FFFCCF7092C6008091C0003C
:107B900085FFFCCF6092C6008091C00085FFFCCFBE
:107BA0005092C6008091C00085FFFCCF4092C60075
:107BB0008091C00085FFFCCF3092C6008091C0004C
:107BC00085FFFCCFB092C60088CF0E94763C8638F5
:107BD00008F4BDCF0E94763C0E94F33C7ECF0E9409
:107BE000763C803809F49CC0813809F40BC1823896
:107BF00009F430C1883909F48FC080E00E94C73C85
:107C00006CCF84E10E94BD3C0E94F33C66CF85E0CE
:107C10000E94BD3C0E94F33C60CF0E94763C809362
:107C200006010E94763C809307010E94F33C55CFE9
:107C30000E94763C803309F411C183E00E94BD3C70
:107C400080E00E94C73C49CF0E94763C80930902A5
:107C50000E94763C8093080280910C028E7F809374
:107C60000C020E94763C853409F409C18091080217
:107C700090910902892B89F000E010E00E94763C87
:107C8000F801E85FFE4F80830F5F1F4F809108026D
:107C9000909109020817190788F30E94763C8032F8
:107CA00009F045CF80910C0280FFF5C0609106017C
:107CB00070910701660F771F7093070160930601AB
:107CC000A0910802B09109021097C9F0E8E0F1E034
:107CD0009B01AD014E0F5F1FF999FECF32BD21BD53
:107CE000819180BDFA9AF99A2F5F3F4FE417F5070B
:107CF00099F76A0F7B1F70930701609306018091CB
:107D0000C00085FFFCCFF092C6008091C00085FFC7
:107D1000FCCFB092C600E1CE83E00E94C73CDDCE2E
:107D200082E00E94C73CD9CE0E94763C8093090233
:107D30000E94763C80930802809106019091070191
:107D4000880F991F90930701809306010E94763C4B
:107D5000853409F49AC080910C028E7F80930C02C6
:107D60000E94763C803209F0B8CE8091C00085FF39
:107D7000FCCFF092C600A0910802B09109021097C2
:107D8000C1F180910C02082F0170182F1695117007
:107D9000E0910601F0910701AF014F5F5F4FBA011B
:107DA00020E030E00023B1F4112339F49491809164
:107DB000C00085FFFCCF9093C6002F5F3F4FCB01E3
:107DC0000196FA012A173B0780F4BC014F5F5F4F11
:107DD000002351F3F999FECFF2BDE1BDF89A90B5B9
:107DE0008091C00085FFFCCFE6CF709307016093C0
:107DF00006018091C00085FDE5CE8091C00085FF21
:107E0000F8CFE0CE81E00E94C73C67CE0E94763C6E
:107E1000803209F08CCE8091C00085FFFCCFF092BB
:107E2000C6008091C00085FFFCCFE092C600809123
:107E3000C00085FFFCCFD092C6008091C00085FFB6
:107E4000FCCFC092C6008091C00085FFFCCFB092ED
:107E5000C60043CE80E10E94C73C3FCE0E94763CE4
:107E60000E94763C182F0E94763C112309F483C0AF
:107E7000113009F484C08FE00E94C73C2ECE80915F
:107E80000C02816080930C02F1CE80910C02816023
:107E900080930C0265CF809107018823880F880B9F
:107EA0008A2180930B028091060190910701880F2F
:107EB000991F90930701809306018091080280FF2B
:107EC00009C08091080290910902019690930902DD
:107ED00080930802F894F999FECF1127E0910601EA
:107EE000F0910701C8E0D1E0809108029091090269
:107EF000103091F40091570001700130D9F303E084
:107F000000935700E8950091570001700130D9F3B4
:107F100001E100935700E8950990199000915700EE
:107F200001700130D9F301E000935700E8951395F3
:107F3000103498F011270091570001700130D9F3E7
:107F400005E000935700E89500915700017001305B
:107F5000D9F301E100935700E8953296029709F0B2
:107F6000C7CF103011F00296E5CF11248091C000E8
:107F700085FFC5CEC8CE8EE10E94C73CAECD85E957
:107F80000E94C73CAACDF894FFCF8000FFFFFFFFFF
:107F9000FFFFFFFFFFFFFFFFFFFFFFFFFFFFFFFFF1
:107FA000FFFFFFFFFFFFFFFFFFFFFFFFFFFFFFFFE1
:107FB000FFFFFFFFFFFFFFFFFFFFFFFFFFFFFFFFD1
:107FC000FFFFFFFFFFFFFFFFFFFFFFFFFFFFFFFFC1
:107FD000FFFFFFFFFFFFFFFFFFFFFFFFFFFFFFFFB1
:107FE000FFFFFFFFFFFFFFFFFFFFFFFFFFFFFFFFA1
:107FF000FFFFFFFFFFFFFFFFFFFFFFFFFFFFFFFF91
:00000001FF
